:1000000054774E1612361201341211341221341262
:100010000212770A1A1A7E3234123A341222341239
:100020002A3412EBC5D5E5F5C1D1E1F1E3F931345C
:1000300012333BC33412DA3412D23412CA3412C22D
:100040003412F23412FA3412EA3412E23412E9CDE4
:100050003412DC3412D43412CC3412C43412F434DA
:1000600012FC3412EC3412E43412C9D8D0C8C0F0F7
:10007000F8E8E0D7DB12D312142534350313230B31
:100080001B2B818A868EC612CE1209192939919AA4
:10009000969ED612DE12A1A9B1B9A6AEB6BEE612E0
:1000A000EE12F612FE12070F171F2F373F27FBF332
:0400B0000076203086
:00000001FF
